:020000040800F2
:10000000880400209D010008712900088D2800083F
:100010006D290008310700080930000800000000C1
:10002000000000000000000000000000E5290008BA
:10003000B907000800000000E12900083D2A000877
:10004000B7010008B7010008B7010008B7010008B0
:10005000B7010008B7010008B7010008B7010008A0
:10006000B7010008B7010008B7010008B701000890
:10007000B7010008B7010008B7010008B701000880
:10008000B7010008B7010008B7010008B701000870
:1000900035070008B7010008B7010008B7010008DC
:1000A000B7010008B7010008B7010008B701000850
:1000B000B7010008B7010008B7010008B701000840
:1000C000B7010008B7010008B7010008B701000830
:1000D000B7010008F92F0008B7010008B7010008B0
:1000E000B7010008B7010008B7010008B701000810
:1000F000B7010008B7010008B7010008B701000800
:10010000B7010008B7010008B7010008B7010008EF
:10011000B7010008B7010008B7010008B7010008DF
:10012000B7010008B7010008B7010008B7010008CF
:10013000B7010008B7010008B7010008B7010008BF
:10014000B7010008B7010008B7010008B7010008AF
:10015000B7010008B7010008B7010008B70100089F
:10016000B7010008B7010008B7010008B70100088F
:10017000B7010008B7010008B7010008000000003F
:10018000B7010008B7010008DFF80CD000F048FA0A
:1001900000480047F13000088804002006488047E6
:1001A00006480047FEE7FEE7FEE7FEE7FEE7FEE75C
:1001B000FEE7FEE7FEE7FEE7F92A000889010008EE
:1001C0002DE9F05F0546002092469B46884606468C
:1001D000814640241BE0284641464746224600F01F
:1001E00057F853465A46C01A914110D31146184643
:1001F000224600F03EF82D1A67EB01084F462246D2
:100200000120002100F035F817EB00094E41201EB7
:10021000A4F10104DFDC484631462A464346BDE8E6
:10022000F09FD2B201E000F8012B491EFBD27047CB
:100230000022F6E710B513460A4604461946FFF7B2
:10024000F0FF204610BD30B50B46014600202022AD
:10025000012409E021FA02F59D4205D303FA02F5D3
:10026000491B04FA02F52844151EA2F10102F1DC33
:1002700030BD202A04DB203A00FA02F1002070474A
:100280009140C2F1200320FA03F3194390407047D4
:10029000202A04DB203A21FA02F00021704721FADB
:1002A00002F3D040C2F12002914008431946704742
:1002B0002DE9FE4F804681EA0300C00F0C460090F6
:1002C00021F0004123F00045B8EB0200A94105D21E
:1002D0004046214690461C460B46024623F000400D
:1002E000104347D0270DC7F30A00C3F30A51029009
:1002F000401A019040286BDAC3F3130040F4801BCE
:100300000098924620B10023D2EB030A63EB0B0B5B
:1003100001985946C0F140025046FFF7AAFF064631
:100320000D4650465946019A00F092F910EB08002C
:100330006141002487EA115284EAE7731A4340D0EE
:10034000009A62B3019A012A4FEA075215DC001B9A
:1003500061EB02014FF0004202EA0752CDE9004290
:10036000001C41F5801132462B4600F092F903B093
:10037000BDE8F08F40462146F9E7001B61EB020122
:10038000001C41F5801300185B412018A2F50017EE
:1003900047EB030140EAD570B6196D4111E06D08D5
:1003A0004FEA360645EAC0754FEA0752001B61EB7B
:1003B0000201001C41F5801149084FEA3000001984
:1003C000514132462B4603B0BDE8F04F00F052B920
:1003D0000098012240000023D0EB020263EBE0739F
:1003E000009821464FEAE074B8EB000061EB04018D
:1003F000E9E783F000435BE781F0004158E72DE92E
:10040000FE4F81EA030404F0004421F0004100940F
:100410004FF0000B23F0004350EA01045ED052EA93
:1004200003045BD0C3F30A54C1F30A552C44A4F26D
:10043000F3340194A0FB0254C1F3130141F4801181
:10044000C3F3130343F4801301FB024400FB034E88
:10045000840A970A44EA815447EA8357A4FB076851
:1004600002958D0A05FB07854FEA932C04FB0C547B
:100470002705029D4FEA065847EA1637B5EB0805EF
:100480006EEB070C870E920E47EA811742EA831241
:10049000A7FB0201B6EB0B0164EB00042B0D43EA52
:1004A0000C335E1844EB1C50DA465146E7FB020160
:1004B000C5F313044FEA0B3343EA14534FEA0432F3
:1004C000019C43EA0603A4F10C040294009CCDE9CC
:1004D00000B400F0DEF803B0BDE8F08F0020014664
:1004E000F9E72DE9F04D81EA030404F0004B21F017
:1004F000004514464FF0000A23F0004150EA05027F
:1005000020D054EA01021DD0C5F30A570246C5F3B4
:100510001303C1F31300C1F30A5640F4801543F4EA
:100520008013A7EB0608101BD64608F2FD3873EBC4
:10053000050002D308F1010801E092185B41B8F10F
:10054000000F03DA00200146BDE8F08D00204FF4D3
:100550008011064684460EE0171B73EB050705D392
:10056000121B63EB050306434CEA010C49084FEAF2
:10057000300092185B4150EA0107EDD152EA0300C6
:1005800012D082EA040083EA0501084305D0101B5B
:10059000AB4106D20122002306E000224FF00043C7
:1005A00002E06FF0010253101AEB06004CEB085109
:1005B00010EB0A0041EB0B01BDE8F04D00F05AB81A
:1005C000C1F30A52C1F3130140F2FF3341F4801129
:1005D0009A4202DA00200146704740F233439A42C1
:1005E000A2F2334202DC5242FFF752BEFFF741BE95
:1005F00030B5041E71F1000404DB4FF000444042AA
:1006000064EB0101141E73F1000405DB1C464FF07E
:100610000043524263EB0403994208BF904230BD4D
:100620001CB509480090094801900546009C06E069
:10063000E06840F0010394E8070098471034AC42AA
:10064000F6D3FFF7A5FD0000BC3A0008DC3A00082D
:10065000202A06DBCB17203A41FA02F043EAE07386
:1006600006E041FA02F3D040C2F120029140084373
:100670001946704710B5141E73F1000408DA401CC7
:1006800041F1000192185B411A4301D120F00100B1
:1006900010BD2DE9F04D92469B4611B1B1FA81F2A1
:1006A00002E0B0FA80F220329046FFF7E2FD044605
:1006B0000F4640EA0A0041EA0B0153465A460843F6
:1006C00013D0114653EA010019D0C8F14002504638
:1006D000FFF7DEFD05460E46504659464246FFF7F7
:1006E000C8FD084305D0012004E020463946BDE896
:1006F000F08D0020054346EAE0762C4337430A9804
:100700006305E40AA0EB08000022FD0A44EA47540E
:100710000A3002D500200146E9E7010510196941B8
:10072000DDE9084500196941BDE8F04DA2E7000088
:10073000FFE7FEE780B540F21000C2F2000000F0D3
:10074000F1F880BD80B58AB046F25560C8F67700F2
:10075000039042F21120C4F23340029040F2231081
:100760000490002006900790082108918DF824003D
:1007700040F21000C2F2000004A902AA01AB00F08E
:1007800021F840B9FFE7019943F6AC20C0F600001C
:1007900002F0DCFC0DE040F21000C2F20000416A01
:1007A0000068826843F65620C0F6000002F0CEFCD6
:1007B000FFE70AB080BD00007047000072B6FFE797
:1007C000FEE7000088B00690059104920393069816
:1007D00090F820008DF80700069800688068009067
:1007E0000598806808B9FFE700E0FFE79DF807007B
:1007F000012806D0FFE79DF80700022840F080801E
:10080000FFE79DF80300400700280CD4FFE79DF8A0
:1008100003000007002806D4FFE79DF80300C00688
:10082000002864D5FFE70098C0F3016002900299A8
:1008300001208840039908600598806868B9FFE73F
:1008400005980168C06840EA415006990968029A13
:1008500001EB0211C1F880010EE005994A68886831
:10086000C96840EAC200084306990968029A01EB88
:100870000211C1F88001FFE705980069069909682F
:10088000029A01EB0211C1F884010598007D01284C
:100890000CD1FFE706980068029900EB0111D1F82E
:1008A000840140F48070C1F88401FFE70498406837
:1008B00006990968029A01EB0211C1F88C010498AB
:1008C000006806990968029A01EB0211C1F88801D3
:1008D00006980068029900EB0111D1F8800140F000
:1008E0000100C1F8800100208DF81F0011E0069979
:1008F000486A40F40010486201208DF81F0008E0AB
:100900000699486A40F48020486201208DF81F0053
:10091000FFE79DF81F0008B07047000081B000900D
:1009200001B0704780B58AB00990002008900998FE
:100930000068406907900998006840680690099827
:1009400000688068059009980068C068049009985C
:1009500000680069039009980068806902909DF81A
:100960001C00C007002800F09480FFE79DF81400E9
:10097000C00758B3FFE709980168012088609DF817
:1009800014008007002804D5FFE7099800F064FBF5
:100990001BE09DF814004007002805D5FFE70898E4
:1009A00040F4006008900FE09DF814000007002854
:1009B00005D5FFE7089840F48050089003E00998B7
:1009C00000F046FBFFE7FFE7FFE7FFE79DF81500B4
:1009D000C00760B3FFE7099801684FF48070886032
:1009E0009DF815008007002804D5FFE7099800F05E
:1009F0003BFB1BE09DF815004007002805D5FFE7ED
:100A0000089840F4005008900FE09DF8150000078A
:100A1000002805D5FFE7089840F48040089003E0DF
:100A2000099800F01DFBFFE7FFE7FFE7FFE79DF8F0
:100A30001600C00760B3FFE7099801684FF48030E3
:100A400088609DF816008007002804D5FFE7099804
:100A500000F012FB1BE09DF816004007002805D5AA
:100A6000FFE7089840F4004008900FE09DF816005A
:100A70000007002805D5FFE7089840F4803008906B
:100A800003E0099800F0F4FAFFE7FFE7FFE7FFE76C
:100A9000FFE79DF81C000007002810D5FFE79DF830
:100AA0001000C006002809D5FFE7089840F4007040
:100AB0000890099801681020C860FFE7FFE79DF8DB
:100AC0001C00400700280FD5FFE79DF81000000725
:100AD000002808D5FFE7099801680820C860099830
:100AE00000F05CFAFFE7FFE79DF81C008007002894
:100AF0000BD5FFE709980068C068800720B1FFE7C1
:100B0000099800F04FFAFFE7FFE79DF81C00400648
:100B1000002810D5FFE79DF80C00C006002809D575
:100B2000FFE7089840F48060089009980168102059
:100B30000861FFE7FFE79DF81C00800600280FD53D
:100B4000FFE79DF80C000007002808D5FFE709988B
:100B5000016808200861099800F028FAFFE7FFE71C
:100B60009DF81C00C00600280BD5FFE70998006817
:100B70000069800720B1FFE7099800F01BFAFFE742
:100B8000FFE79DF81E00800700280FD5FFE79DF8BE
:100B90001800C006002808D5FFE709980168102052
:100BA0004860099800F00AFAFFE7FFE79DF81E0089
:100BB000C00778B1FFE79DF818000007002808D5A6
:100BC000FFE70998016808204860099800F058FA82
:100BD000FFE7FFE79DF81D000006002840F18D802B
:100BE000FFE79DF818004007002840F18180FFE7EB
:100BF0009DF81D00C00750B1FFE79DF80800C00731
:100C000028B1FFE7089840F001000890FFE79DF841
:100C10001D00800700280BD5FFE79DF8080080071E
:100C2000002805D5FFE7089840F002000890FFE78C
:100C30009DF81D00400700280BD5FFE79DF8080030
:100C40004007002805D5FFE7089840F00400089009
:100C5000FFE79DF81D000007002848D5FFE79DF835
:100C6000080010F0700F42D0FFE7029800F070000B
:100C700001460191102814D0FFE70198202815D0D3
:100C8000FFE70198302816D0FFE70198402817D0D9
:100C9000FFE70198502818D0FFE70198602819D085
:100CA0001DE0089840F00800089019E0089840F00E
:100CB0001000089014E0089840F0200008900FE021
:100CC000089840F0400008900AE0089840F0800042
:100CD000089005E0089840F48070089000E0FFE775
:100CE00009980168886920F070008861FFE7FFE7D4
:100CF0000998016804204860FFE7089848B1FFE7B9
:100D0000089A0999486A104348620998FFF706FE55
:100D1000FFE70AB080BD000080B584B00290029861
:100D200020B9FFE701208DF80F00E0E0029890F86D
:100D3000200020B9FFE7029800F0DEF8FFE70298F4
:100D40000168086840F00100086000F033FC019081
:100D5000FFE7029800684068C007A8B9FFE700F005
:100D600029FC0199401A0B280DD3FFE70299486A24
:100D700040F4003048620299052081F820000120EB
:100D80008DF80F00B3E0E4E702980168086820F0EE
:100D90000200086000F00EFC0190FFE70298006876
:100DA00040688007002815D5FFE700F003FC019993
:100DB000401A0B280DD3FFE70299486A40F400302F
:100DC00048620299052081F8200001208DF80F006B
:100DD0008DE0E3E70298007E012807D1FFE7029843
:100DE0000168086840F08000086006E00298016829
:100DF000086820F080000860FFE70298407E012824
:100E000007D1FFE702980168086840F040000860D9
:100E100006E002980168086820F040000860FFE7DB
:100E20000298807E012807D1FFE7029801680868D0
:100E300040F02000086006E002980168086820F091
:100E400020000860FFE70298C07E012807D1FFE775
:100E500002980168086820F01000086006E0029817
:100E60000168086840F010000860FFE70298007F02
:100E7000012807D1FFE702980168086840F00800E0
:100E8000086006E002980168086820F00800086021
:100E9000FFE70298407F012807D1FFE70298016829
:100EA000086840F00400086006E0029801680868DD
:100EB00020F004000860FFE7029B19685A689868F0
:100EC000D3F80CC040EA0C00D3F810C040EA0C0084
:100ED0005B691843013A1043C861029900204862D7
:100EE000029A012182F820108DF80F00FFE79DF88B
:100EF0000F0004B080BD000080B58AB009900020CA
:100F0000089007900690059004900998006846F2B2
:100F10000041C4F2000188423ED1FFE7FFE7002014
:100F2000039043F64000C4F20200016841F00071F2
:100F30000160006800F0007003900398FFE7FFE78E
:100F40000020029043F63000C4F20200016841F034
:100F500001010160006800F0010002900298FFE7C3
:100F60004FF4C0500490022005900020009006909D
:100F700003200790092008900020C4F2020004A971
:100F800000F03CF9009A14200190114600F0AAFBF1
:100F9000019800F09DFBFFE70AB080BD81B0009092
:100FA00001B0704781B0009001B0704781B00090EF
:100FB00001B0704781B0009001B0704781B00090DF
:100FC00001B0704780B584B00290029890F820007C
:100FD00001282FD1FFE70299022081F82000029812
:100FE0000168086820F00100086000F0E3FA019051
:100FF000FFE7029800684068C007A8B1FFE700F06B
:10100000D9FA0199401A0B280DD3FFE70299486AD3
:1010100040F4003048620299052081F82000012048
:101020008DF80F000FE0E4E70299002048628DF888
:101030000F0008E00299486A40F40020486201204D
:101040008DF80F00FFE79DF80F0004B080BD000091
:1010500081B0009001B0704781B0009001B070473E
:1010600081B0009001B0704781B0009001B070472E
:1010700081B0009001B0704781B0009001B070471E
:1010800081B0009001B0704780B584B002900298A2
:10109000806D019000F08EFA0090029890F8350073
:1010A00002280DD0FFE7029980204865FFE70299EA
:1010B000002081F83400FFE701208DF80F0055E093
:1010C00002980168086820F016000860029801681C
:1010D000486920F0800048610298006C20B9FFE761
:1010E0000298806C38B1FFE702980168086820F028
:1010F00008000860FFE702980168086820F0010016
:101100000860FFE7029800680068C007C8B1FFE701
:1011100000F050FA0099401A062811D3FFE702990F
:10112000202048650299032081F83500FFE70299E5
:10113000002081F83400FFE703208DF80F0015E050
:10114000E0E70298C16D3F208840019988600299CC
:10115000012081F83500FFE70299002081F8340072
:10116000FFE7FFE700208DF80F00FFE79DF80F0075
:1011700004B080BD82B00090009890F8350002283D
:1011800007D0FFE700998020486501208DF807000F
:101190000EE00099052081F8350000980168086884
:1011A00020F001000860FFE700208DF80700FFE74E
:1011B0009DF8070002B0704780B584B0039000F03E
:1011C000F9F90290039801900198013048B1FFE7C6
:1011D00040F20800C2F20000017801980844019032
:1011E000FFE7FFE700F0E6F90299401A019988420B
:1011F00001D2FFE7F6E704B080BD00008EB00D908D
:101200000C9100200A90099008900B90FFE70B9832
:101210000F2800F2CC81FFE70B99012088400A904B
:101220000C9800680A990840099009980A99884220
:1012300040F0B881FFE70C98406800F003000128F7
:1012400007D0FFE70C98406800F0030002282FD178
:10125000FFE70D98806808900B984100032000FA82
:1012600001F10898884308900C98C0680B994900D0
:1012700000FA01F108980843089008980D998860D1
:101280000D98406808900B99012000FA01F1089828
:10129000884308900C984068C0F300100B9900FA3E
:1012A00001F108980843089008980D994860FFE7F5
:1012B0000C98406800F00300032818D0FFE70D9851
:1012C000C06808900B984100032000FA01F10898CB
:1012D000884308900C9880680B99490000FA01F146
:1012E00008980843089008980D99C860FFE70C9883
:1012F000406800F00300022826D1FFE70D980B9903
:101300006FF0030202EA51010844006A08900B984A
:1013100000F0070081000F2000FA01F108988843CF
:1013200008900C9800690B9901F00701890000FAF8
:1013300001F108980843089008980D990B9B02EA60
:10134000530211440862FFE70D98006808900B985B
:101350004100032000FA01F10898884308900C9896
:10136000406800F003000B99490000FA01F1089869
:101370000843089008980D9908600C9880798007B8
:10138000002800F00E81FFE7FFE70020079043F6FA
:101390004400C4F20200016841F480410160006829
:1013A00000F4804007900798FFE70B9820F00300B7
:1013B00043F60801C4F20101405808900B9800F070
:1013C000030081000F2000FA01F10898884308907B
:1013D0000D980021C4F20201884203D1FFE70020EA
:1013E00006905EE00D9840F20041C4F2020188428E
:1013F00003D1FFE70120059050E00D9840F6000171
:10140000C4F20201884203D1FFE70220049042E0C7
:101410000D9840F60041C4F20201884203D1FFE773
:101420000320039034E00D9841F20001C4F2020160
:10143000884203D1FFE70420029026E00D9841F294
:101440000041C4F20201884203D1FFE70520019068
:1014500018E00D9841F60001C4F20201884203D160
:10146000FFE7062000900AE00D9941F60042C4F221
:1014700002020820914208BF07200090FFE7009871
:101480000190FFE701980290FFE702980390FFE7C1
:1014900003980490FFE704980590FFE705980690ED
:1014A000FFE70698C0B20B9901F00301890000FA2A
:1014B00001F108980843089008980B9921F003015E
:1014C00043F60802C4F20102885043F60840C4F211
:1014D00001000068089009990898884308900C98C2
:1014E0008079C006002805D5FFE7099908980843C8
:1014F0000890FFE7089843F60841C4F2010108602C
:1015000043F60C40C4F2010000680890099908985D
:10151000884308900C9880798006002805D5FFE75D
:101520000999089808430890FFE7089843F60C418A
:10153000C4F20101086043F60440C4F201000068EF
:10154000089009990898884308900C98807980073A
:10155000002805D5FFE70999089808430890FFE798
:10156000089843F60441C4F20101086043F60040C4
:10157000C4F201000068089009990898884308900F
:101580000C988079C00728B1FFE7099908980843AB
:101590000890FFE7089843F60041C4F20101086093
:1015A000FFE7FFE7FFE70B9801300B902FE60EB047
:1015B0007047000040F28000C2F2000000687047EF
:1015C00040F20800C2F20000027840F28001C2F24C
:1015D00000010868104408607047000080B543F6B9
:1015E0000041C4F20201086840F400700860086815
:1015F00040F480600860086840F480700860032050
:1016000000F08AF80F2000F005F800F03BF8002009
:1016100080BD000080B582B0009040F20400C2F2AC
:101620000000006840F20801C2F200010A784FF49D
:101630007A71B1FBF2F1B0FBF1F000F0A5FD20B141
:10164000FFE701208DF8070018E000980F280DD85B
:10165000FFE700994FF0FF30002200F043F80098B8
:1016600040F20C01C2F20001086003E001208DF895
:10167000070003E000208DF80700FFE79DF8070052
:1016800002B080BD82B0FFE70020019043F6440025
:10169000C4F20200016841F480410160006800F476
:1016A000804001900198FFE7FFE70020009043F69B
:1016B0004000C4F20200016841F0805101600068FE
:1016C00000F0805000900098FFE702B070470000E3
:1016D00080B582B08DF807009DF9070001F096FCF7
:1016E00002B080BD80B586B08DF8170004910392DA
:1016F0000020029001F0A2FC02909DF917000190D9
:1017000002980499039A01F035F90146019801F015
:101710009DFC06B080BD000080B582B001900198AC
:1017200001F0B6FC02B080BD80B584B0029001919A
:10173000029820B9FFE701208DF80F0021E1019800
:1017400043F60041C4F20201096801F00701884232
:1017500012D9FFE7019943F60040C4F2020001707C
:10176000006800F007000199884204D0FFE70120DB
:101770008DF80F0005E1FFE7029800788007002848
:101780002AD5FFE7029800784007002809D5FFE72F
:1017900043F60801C4F20201086840F4E050086012
:1017A000FFE7029800780007002809D5FFE743F615
:1017B0000801C4F20201086840F460400860FFE7D5
:1017C00043F60801C4F20201086820F0F000029A12
:1017D000926810430860FFE702980078C00700286D
:1017E0006ED0FFE702984068012811D1FFE743F669
:1017F0000000C4F20200006800F400310020B0EBE9
:10180000514F04D1FFE701208DF80F00B9E02CE023
:1018100002984068022805D0FFE702984068032834
:1018200011D1FFE743F60000C4F20200006800F0A7
:1018300000710020B0EB516F04D1FFE701208DF85B
:101840000F009EE010E043F60000C4F202000068C2
:1018500000F002010020B0EB510F04D1FFE701209E
:101860008DF80F008DE0FFE7FFE743F60801C4F2B3
:101870000201086820F00300029A526810430860D1
:10188000FFF798FE0090FFE743F60800C4F202005D
:10189000006800F00C0002994968B0EB810F0ED08F
:1018A000FFE7FFF787FE0099401A41F2893188422D
:1018B00004D3FFE703208DF80F0062E0E4E7FFE7C1
:1018C000019843F60041C4F20201096801F00701E2
:1018D000884212D2FFE7019943F60040C4F20200A9
:1018E0000170006800F007000199884204D0FFE70A
:1018F00001208DF80F0044E0FFE7029800784007D0
:1019000000280CD5FFE743F60801C4F2020108687D
:1019100020F4E050029AD26810430860FFE7029872
:101920000078000700280DD5FFE743F60801C4F250
:101930000201086820F46040029A126940EAC2007D
:101940000860FFE700F04CF843F60801C4F202011A
:101950000968C9B20A0943F63E21C0F60001895C54
:10196000C84040F20401C2F20001086040F20C00DD
:10197000C2F200000068FFF74DFE00208DF80F0056
:10198000FFE79DF80F0004B080BD000040F20400A6
:10199000C2F200000068704780B5FFF7F7FF43F61A
:1019A0000801C4F202010968C1F3822243F64E2104
:1019B000C0F60001895CC84080BD000080B5FFF71B
:1019C000E5FF43F60801C4F20201096889B24A0B37
:1019D00043F64E21C0F60001895CC84080BD00007E
:1019E00080B586B00020059004900390029043F6E5
:1019F0000800C4F20200006800F00C0001460191EA
:101A000040B1FFE7019804280AD0FFE701980828B1
:101A10000CD04FE042F20040C0F2F40002904FE0E0
:101A200041F20020C0F27A00029049E043F604003F
:101A3000C4F20200016801F03F0105910068400214
:101A4000002813D5FFE743F60400C4F20200006843
:101A5000C0F3881041F20021C0F27A01A0FB01011D
:101A6000059A0023FEF7ACFB049012E043F6040055
:101A7000C4F202000068C0F3881042F20041C0F2D4
:101A8000F401A0FB0101059A0023FEF799FB0490E5
:101A9000FFE743F60400C4F20200006800F440319E
:101AA000022000EBD130039004980399B0FBF1F0D1
:101AB000029005E042F20040C0F2F4000290FFE71D
:101AC000029806B080BD000080B586B004900498EE
:101AD00020B9FFE701208DF8170050E30498007843
:101AE000C007002800F0A580FFE743F60800C4F215
:101AF0000200006800F00C00042813D0FFE743F652
:101B00000800C4F20200006800F00C0008281ED192
:101B1000FFE743F60400C4F2020000684002002818
:101B200015D5FFE743F60000C4F20200006800F498
:101B300000310020B0EB514F08D0FFE70498406817
:101B400020B9FFE701208DF8170018E370E0FFE7E8
:101B500004984068B0F5803F09D1FFE743F60001E3
:101B6000C4F20201086840F48030086020E0049864
:101B70004068B0F5A02F0DD1FFE743F60001C4F295
:101B80000201086840F480200860086840F4803052
:101B900008600CE043F60001C4F20201086820F47A
:101BA00080300860086820F480200860FFE7FFE7C5
:101BB000FFE704984068E8B1FFE7FFF7FBFC0390FC
:101BC000FFE743F60000C4F20200006800F40031B1
:101BD0000020B0EB514F0CD1FFE7FFF7EBFC03996E
:101BE000401A652804D3FFE703208DF81700C6E2EA
:101BF000E7E71CE0FFF7DEFC0390FFE743F6000099
:101C0000C4F20200006800F400310020B0EB514F34
:101C10000CD0FFE7FFF7CEFC0399401A652804D3E8
:101C2000FFE703208DF81700A9E2E7E7FFE7FFE7EA
:101C3000FFE7049800788007002840F19680FFE7CE
:101C400043F60800C4F20200006810F00C0F13D035
:101C5000FFE743F60800C4F20200006800F00C0041
:101C600008282CD1FFE743F60400C4F20200006804
:101C70004002002823D4FFE743F60000C4F202002C
:101C8000006800F002010020B0EB510F09D0FFE71F
:101C90000498C068012804D0FFE701208DF81700E0
:101CA0006DE243F60001C4F20201086820F0F8007A
:101CB000049A126940EAC2000860FFE754E0049801
:101CC000C06870B3FFE70021C4F24721012008601B
:101CD000FFF770FC0390FFE743F60000C4F2020038
:101CE000006800F002010020B0EB510F0CD1FFE7BB
:101CF000FFF760FC0399401A032804D3FFE7032091
:101D00008DF817003BE2E7E743F60001C4F2020159
:101D1000086820F0F800049A126940EAC2000860DE
:101D200021E00021C4F2472100200860FFF742FCB7
:101D30000390FFE743F60000C4F20200006800F0E1
:101D400002010020B0EB510F0CD0FFE7FFF732FC8F
:101D50000399401A032804D3FFE703208DF81700E6
:101D60000DE2E7E7FFE7FFE7FFE7049800780007E9
:101D700000284BD5FFE70498406918B3FFE740F609
:101D80008061C4F2472101200860FFF713FC039033
:101D9000FFE743F67400C4F20200006800F002019D
:101DA0000020B0EB510F0CD1FFE7FFF703FC0399C4
:101DB000401A032804D3FFE703208DF81700DEE163
:101DC000E7E722E040F68061C4F247210020086086
:101DD000FFF7F0FB0390FFE743F67400C4F2020044
:101DE000006800F002010020B0EB510F0CD0FFE7BB
:101DF000FFF7E0FB0399401A032804D3FFE7032011
:101E00008DF81700BBE1E7E7FFE7FFE704980078EC
:101E10004007002840F1CE80FFE700208DF8070042
:101E200043F64000C4F202000068C000002815D448
:101E3000FFE7FFE70020009043F64000C4F20200F5
:101E4000016841F080510160006800F0805000900E
:101E50000098FFE701208DF80700FFE747F2000038
:101E6000C4F200000068C005002822D4FFE747F252
:101E70000001C4F20001086840F480700860FFF7B8
:101E800099FB0390FFE747F20000C4F200000068EE
:101E9000C00500280CD4FFE7FFF78CFB0399401A1C
:101EA000032804D3FFE703208DF8170067E1EAE772
:101EB000FFE7FFE704988068012809D1FFE743F6B0
:101EC0007001C4F20201086840F0010008601FE0E0
:101ED0000498806805280DD1FFE743F67001C4F22D
:101EE0000201086840F004000860086840F0010042
:101EF00008600CE043F67001C4F20201086820F0AB
:101F000001000860086820F004000860FFE7FFE7B0
:101F1000FFE704988068F8B1FFE7FFF74BFB0390F9
:101F2000FFE743F67000C4F20200006800F002010F
:101F30000020B0EB510F0ED1FFE7FFF73BFB0399F9
:101F4000401A41F28931884204D3FFE703208DF81B
:101F5000170014E1E5E71EE0FFF72CFB0390FFE715
:101F600043F67000C4F20200006800F00201002095
:101F7000B0EB510F0ED0FFE7FFF71CFB0399401A9F
:101F800041F28931884204D3FFE703208DF817001E
:101F9000F5E0E5E7FFE79DF80700012809D1FFE735
:101FA00043F64001C4F20201086820F08050086046
:101FB000FFE7FFE704988069002800F0DC80FFE776
:101FC00043F60800C4F20200006800F00C00082884
:101FD00000F08580FFE70498806902285CD1FFE764
:101FE0006021C4F2472100200860FFF7E3FA039064
:101FF000FFE743F60000C4F20200006800F0007141
:102000000020B0EB516F0CD0FFE7FFF7D3FA039934
:10201000401A032804D3FFE703208DF81700AEE031
:10202000E7E70499C869D1F820C04B6A8A6A40EA98
:102030000C0040EA8310D2034FF6FF739A43A2F5D7
:1020400080321043C96A40EA016043F60401C4F2D9
:10205000020108606021C4F2472101200860FFF7F7
:10206000A9FA0390FFE743F60000C4F202000068FB
:1020700000F000710020B0EB516F0CD1FFE7FFF7CB
:1020800099FA0399401A032804D3FFE703208DF837
:10209000170074E0E7E721E06021C4F24721002047
:1020A0000860FFF787FA0390FFE743F60000C4F2E9
:1020B0000200006800F000710020B0EB516F0CD0FE
:1020C000FFE7FFF777FA0399401A032804D3FFE7E5
:1020D00003208DF8170052E0E7E7FFE74AE0049895
:1020E0008069012804D1FFE701208DF8170046E040
:1020F00043F60400C4F2020000680290049880696C
:10210000012831D0FFE7029800F480000499C969E2
:10211000884229D1FFE7029800F03F000499096A3C
:10212000884221D1FFE7029847F6C0710840049920
:10213000496AB0EB811F17D1FFE7029800F44030E5
:102140000499896AC9034FF6FF729143A1F5803162
:10215000884209D1FFE7029800F070600499C96ACB
:10216000B0EB016F04D0FFE701208DF8170006E007
:10217000FFE7FFE7FFE700208DF81700FFE79DF876
:10218000170006B080BD000080B582B001900198B4
:1021900000F02AFC02B080BD82B00190ADF80210C0
:1021A00002B0704781B0009001B0704780B592B026
:1021B0001190119800680068109011980068C0682C
:1021C0000F901198006840690E9000200D900C90BF
:1021D000109800F00F000D900D9888B9FFE79DF85A
:1021E0004000800600280AD5FFE79DF83C008006E5
:1021F000002804D5FFE7119800F0F4FC02E2FFE7A5
:102200000D98002800F0C280FFE79DF83800C00755
:1022100038B9FFE7BDF83C0010F4907F00F0B680BD
:10222000FFE79DF84000C00758B1FFE79DF83D006B
:10223000C00730B1FFE71199486C40F001004864D5
:10224000FFE79DF84000400700280BD5FFE79DF809
:102250003800C00730B1FFE71199486C40F0020028
:102260004864FFE79DF84000800700280BD5FFE792
:102270009DF83800C00730B1FFE71199486C40F075
:1022800004004864FFE79DF840000007002811D5CE
:10229000FFE79DF83C008006002805D4FFE79DF885
:1022A0003800C00730B1FFE71199486C40F00800D2
:1022B0004864FFE71198406C002866D0FFE79DF85E
:1022C0004000800600280AD5FFE79DF83C00800604
:1022D000002804D5FFE7119800F084FCFFE711986F
:1022E00000684069C0F380100C901198406C0007A2
:1022F000002804D4FFE70C9800283ED0FFE711988F
:1023000000F012FC119800684069400600282FD5A3
:10231000FFE7FFE7FFE71198006850E8050F20F09E
:1023200040000B90FFE70B991198026842E80510F6
:102330000028F0D1FFE7FFE71198C06B98B1FFE7E5
:102340001198C16B42F60D30C0F600000865119877
:10235000C06BFEF70FFF28B1FFE71198C06B016D4E
:102360008847FFE703E01198FFF71CFFFFE703E052
:102370001198FFF717FFFFE706E01198FFF712FF2C
:10238000119900204864FFE7FFE73BE11198006BDB
:10239000012840F01781FFE79DF84000C0060028A3
:1023A00040F11081FFE79DF83C00C006002840F195
:1023B0000981FFE7FFE700200A9011980068006894
:1023C0000A901198006840680A900A98FFE71198EF
:1023D000006840694006002840F19A80FFE71198A4
:1023E000C06B00684068ADF82600BDF826000028E4
:1023F00075D0FFE7BDF826001199898D88426EDA05
:10240000FFE7BDF826001199C8851198C06BC06917
:10241000B0F5807F58D0FFE7FFE7FFE7119800682D
:1024200050E8030F20F480700890FFE70899119896
:10243000026842E803100028F0D1FFE7FFE7FFE75A
:10244000FFE71198006850E8050F20F001000790A1
:10245000FFE707991198026842E805100028F0D1BB
:10246000FFE7FFE7FFE7FFE71198006850E8050F77
:1024700020F040000690FFE706991198026842E8B4
:1024800005100028F0D1FFE7FFE71199202081F81F
:102490004200119900200863FFE7FFE711980068E8
:1024A00050E8030F20F010000590FFE70599119800
:1024B000026842E803100028F0D1FFE7FFE7119817
:1024C000C06BFEF7E1FDFFE7119902204863119808
:1024D000818DC28D891A89B2FFF75EFE17E0BDF8C3
:1024E00026001199898D884210D1FFE71198C06BA1
:1024F000C069B0F5807F08D1FFE7119902204863D9
:102500001198818DFFF748FEFFE7FFE7FFE779E0CD
:102510001199888DC98D401AADF812001198C08D9F
:1025200000284ED0FFE7BDF81200002849D0FFE791
:10253000FFE7FFE71198006850E8030F20F4907060
:102540000390FFE703991198026842E803100028FE
:10255000F0D1FFE7FFE7FFE7FFE71198006850E8D9
:10256000050F20F001000290FFE702991198026820
:1025700042E805100028F0D1FFE7FFE7119920207D
:1025800081F84200119900200863FFE7FFE71198E6
:10259000006850E8030F20F010000190FFE7019958
:1025A0001198026842E803100028F0D1FFE7FFE726
:1025B0001199022048631198BDF81210FFF7ECFD45
:1025C000FFE71FE09DF84000000600280AD5FFE75E
:1025D0009DF83C000006002804D5FFE7119800F0A4
:1025E00053FC0FE09DF84000400600280AD5FFE7A5
:1025F0009DF83C004006002804D5FFE7119800F044
:10260000DDFAFFE712B080BD80B582B0009000987F
:1026100020B9FFE701208DF8070040E000988069AD
:1026200008B1FFE700E0FFE7009890F8410040B9EB
:10263000FFE70099002081F84000009800F034F88E
:10264000FFE70099242081F8410000980168C868DC
:1026500020F40050C860009800F078FB00980168F2
:10266000086920F49040086100980168486920F0EA
:102670002A00486100980168C86840F40050C860AA
:10268000009900204864009A202182F84110009AA5
:1026900082F84210009948638DF80700FFE79DF823
:1026A000070002B080BD000080B58AB0099000200C
:1026B000089007900690059004900998006841F2F0
:1026C0000001C4F2010188423ED1FFE7FFE700208C
:1026D000039043F64400C4F20200016841F0100187
:1026E0000160006800F0100003900398FFE7FFE727
:1026F0000020029043F63000C4F20200016841F06D
:1027000001010160006800F0010002900298FFE7FB
:102710004FF4C060049002200590002000900690C5
:1027200003200790072008900020C4F2020004A9AB
:10273000FEF764FD009A252001901146FEF7D2FFB6
:102740000198FEF7C5FFFFE70AB080BD81B0009099
:1027500001B0704780B58AB008900791ADF81A2093
:10276000059300200290089890F84100202840F03E
:102770008180FFE7079820B1FFE7BDF81A0020B974
:10278000FFE701208DF8270078E0089900204864D1
:102790000899212081F84100FEF70CFF0290BDF856
:1027A0001A0008998884BDF81A000899C884089806
:1027B0008068B0F5805F09D1FFE70898006928B903
:1027C000FFE7002004900798039004E00798049026
:1027D00000200390FFE7FFE70898C08C78B3FFE77D
:1027E0000898029B05996A4611608021002200F03A
:1027F00095FB40B1FFE70899202081F841000320B4
:102800008DF827003AE0049858B9FFE7039800884C
:102810006FF35F20089909684860039802300390BD
:1028200008E0049800780899096848600498013025
:102830000490FFE70899C88C0138C884CCE7089851
:10284000029B05996A4611604021002200F066FB58
:1028500040B1FFE70899202081F8410003208DF85E
:1028600027000BE00899202081F8410000208DF816
:10287000270003E002208DF82700FFE79DF82700DE
:102880000AB080BD81B0009001B07047FFE7FEE75D
:1028900080B582B040F21000C2F20000019046F212
:1028A0000041C4F200010160062141600021816005
:1028B000C1604FF4102202614FF4001242610176B0
:1028C000012242768176C27601774177FEF724FABB
:1028D00018B1FFE7FDF772FFFFE702B080BD00000F
:1028E00082B0FFE70020019043F63000C4F20200FE
:1028F000016841F080010160006800F080000190F3
:102900000198FFE7FFE70020009043F63000C4F293
:102910000200016841F001010160006800F001005F
:1029200000900098FFE702B07047000080B582B0C9
:1029300040F23800C2F20000019041F20001C4F2FE
:10294000010101604FF4E131416000218160C1600B
:1029500001610C2242618161C161FFF755FE18B12E
:10296000FFE7FDF72BFFFFE702B080BDFFE7FEE7C3
:10297000FFE7FEE788B0079006910592079800F000
:10298000070004900498C0F10700052803D3FFE76F
:102990000420019004E00498C0F107000190FFE7D3
:1029A0000198039004980430062803D8FFE700201C
:1029B000009003E0049803380090FFE7009802902D
:1029C00006980399012202FA01F101390840029B9D
:1029D000984005999A40013A1140084308B0704761
:1029E000704700007047000080B582B000900098EA
:1029F0000138B0F1807F03D3FFE70120019019E097
:102A0000009801384EF21401CEF2000108604FF038
:102A1000FF300F2100F01AFB4EF21801CEF2000138
:102A2000002008604EF21002CEF200020721116071
:102A30000190FFE7019802B080BD000080B5FEF76D
:102A4000BFFD80BD80B594B008A83021FDF7F0FB34
:102A5000002007900690059004900390FFE7002067
:102A6000029043F64000C4F20200016841F0805138
:102A70000160006800F0805002900298FFE7FFE7D5
:102A80000020019047F20000C4F20000016841F408
:102A900080410160006800F4804001900198FFE7E8
:102AA000012008904FF48030099002210E914FF4DC
:102AB00080000F90042010905422119212911390D4
:102AC00008A8FFF701F818B1FFE7FDF777FEFFE769
:102AD0000F20039002210491002005904FF48052B2
:102AE0000692079003A8FEF71FFE18B1FFE7FDF757
:102AF00065FEFFE714B080BD4EF68851CEF20001AE
:102B0000086840F4700008607047000080B582B02B
:102B100001900198806B009000990020C885009872
:102B2000FFF740FB02B080BD84B00390FFE7FFE7F2
:102B30000398006850E8030F20F490700290FFE7BC
:102B400002990398026842E803100028F0D1FFE7D9
:102B5000FFE7FFE7FFE70398006850E8050F20F064
:102B600001000190FFE701990398026842E805100F
:102B70000028F0D1FFE7FFE70398006B012814D18C
:102B8000FFE7FFE7FFE70398006850E8030F20F036
:102B900010000090FFE700990398026842E80310D4
:102BA0000028F0D1FFE7FFE7FFE70399202081F835
:102BB000420003990020086304B0704780B582B0DA
:102BC000019001980168C86820F04000C860019930
:102BD000202081F841000198FFF754FE002002B048
:102BE00080BD000080B586B0049000200390029064
:102BF000049890F84200222840F0A080FFE7049853
:102C00008068B0F5805F13D1FFE70498006978B958
:102C1000FFE70498806A02900498006840686FF3A8
:102C20005F20029908800499886A0230886223E054
:102C30000498806A039004988068B0F5805F08D09B
:102C4000FFE70498806850B9FFE70498006930B93D
:102C5000FFE70498006840680399087007E004984B
:102C60000068406800F07F0003990870FFE704994E
:102C7000886A01308862FFE70499C88D0138C885E9
:102C80000004002856D1FFE704980168C86820F0C6
:102C90002000C86004980168C86820F48070C8608B
:102CA00004980168486920F00100486104992020D7
:102CB00081F842000499002048630498006B0128C1
:102CC00030D1FFE7049900200863FFE7FFE704988D
:102CD000006850E8030F20F010000190FFE7019911
:102CE0000498026842E803100028F0D1FFE7FFE7EC
:102CF000049800680068C00600280ED5FFE7FFE7CB
:102D00000020009004980068006800900498006813
:102D1000406800900098FFE7FFE70498818DFFF777
:102D20003BFA03E00498FFF711FDFFE700208DF860
:102D3000170007E000208DF8170003E002208DF84F
:102D40001700FFE79DF8170006B080BD80B586B07C
:102D5000059005980068006920F44050059A1168B4
:102D6000D26810430861059988680B694A69C96986
:102D7000184310430843049005980068C06849F25E
:102D80000C6188430499084305990968C86005984F
:102D90000068406920F44070059A116892691043F8
:102DA00048610598006841F20001C4F201018842BF
:102DB00009D0FFE70598006841F20041C4F2010123
:102DC000884204D1FFE7FEF7F9FD039003E0FEF728
:102DD000E3FD0390FFE70598C069B0F5004F29D1E6
:102DE000FFE703981921A0FB0101059A13680293DC
:102DF00053685A00DB0FFDF7E3F90299864648F263
:102E00001F53C5F2EB13AEFB0320420910014FF034
:102E1000640C02FB1CEC322202EBCC02A2FB03325C
:102E2000F82303EA521300EB4300C2F342121044AA
:102E3000886026E003981921A0FB0101059A136818
:102E4000019353689A009B0FFDF7BAF901998446E4
:102E500048F21F52C5F2EB12ACFB0230430964206A
:102E600003FB10CC322000EB0C10A0FB0202F02080
:102E700000EA521000EB0310C2F3431210448860C2
:102E8000FFE706B080BD000083B00190019890F884
:102E9000410021283AD1FFE701988068B0F5805FB2
:102EA00013D1FFE70198006978B9FFE70198006A3C
:102EB0000090009800886FF35F20019909684860CE
:102EC0000199086A0230086208E0019A106A411C00
:102ED00011620078019909684860FFE70199C88C80
:102EE0000138C884000468B9FFE701980168C86820
:102EF00020F08000C86001980168C86840F0400078
:102F0000C860FFE700208DF80B0003E002208DF879
:102F10000B00FFE79DF80B0003B0704780B586B04B
:102F2000DDF820C0049003918DF80B200193FFE79A
:102F300004980068006803990840401AB0FA80F0CD
:102F400040099DF80B1088424DD1FFE708980130E9
:102F5000002847D0FFE7FEF72DFB0199401A08999A
:102F6000884203D8FFE7089820B9FFE703208DF8CF
:102F700017003CE004980068C0684007002830D57E
:102F8000FFE7039880282CD0FFE70398402828D03B
:102F9000FFE704980068006800F008010120B0EB2A
:102FA000D10F1DD1FFE7FFE70020009004980068D3
:102FB0000068009004980068406800900098FFE75F
:102FC0000498FFF7B1FD049908204864FFE70499CD
:102FD000002081F84000FFE701208DF8170006E08F
:102FE000FFE7FFE7A4E700208DF81700FFE79DF853
:102FF000170006B080BD000080B540F23800C2F274
:103000000000FFF7D3F880BDFFE7FEE781B08DF841
:1030100003009DF9030000280ED4FFE79DF903107B
:1030200001F01F02012090404A094EF20011CEF239
:10303000000141F82200FFE701B070474EF60C5046
:10304000CEF200000068C0F30220704782B08DF815
:10305000070000919DF9070000280AD4FFE70098B7
:1030600000019DF907104EF20042CEF20002885492
:103070000BE0009800019DF8071001F00F014EF6DB
:103080001452CEF200028854FFE702B070470000ED
:1030900083B00290029800F0070000904EF60C51A9
:1030A000CEF200010868019001984FF6FF0210402F
:1030B00001900198009A40EA02200022C0F2FA52E0
:1030C000104301900198086003B0704780B582B04A
:1030D0000190009140F23800C2F2000001A90122E3
:1030E0004FF6FF73FFF736FB019802B080BD00007A
:1030F00080B582B000200190FEF770FAFFF7A2FCC5
:10310000FFF7EEFBFFF7C4FBFFF710FC40F21000E7
:10311000C2F20000FDF756FF0090009868B1FFE78B
:10312000009940F21000C2F20000426A43F67D208E
:10313000C0F6000000F00AF8FFE7FFE7FDF702FB2A
:103140004FF47A70FEF738F8F8E700000FB4054B3B
:1031500010B503A9044A029800F0DAF810BC5DF833
:1031600014FB0000CD3000080000002002E008C879
:10317000121F08C1002AFAD170477047002001E0F1
:1031800001C1121F002AFBD1704700002DE9FF5F2B
:1031900082B00021DDE90430020DDDF840B00343C8
:1031A00018D044F61050A2F2FF3242431514119881
:1031B00001281FD0A5EB0B00401C5FEA000A4FF06E
:1031C00000064E4FDFF83891B046504615D5CAF18B
:1031D000000413E0119801244AA3012801D16FEAE9
:1031E0000B010298119AC0E90031C0E9024206B011
:1031F000BDE8F09FCBF10000DFE704460021404A24
:10320000491842EB0450CDE9001012E0E00707D066
:1032100032463B4640464946FDF7F1F8804689462E
:1032200032463B4610461946FDF7E9F806460F467A
:103230006410002CEAD1DDE90401DDE90023BAF1D4
:10324000000F06DAFDF7DBF842464B46FDF7D7F8EC
:1032500005E0FDF746F942464B46FDF742F90446C4
:103260000E460022284BFDF7C3F903D84FF0FF307C
:10327000014607E00022254B20463146FDF718F8AD
:10328000FDF79EF9102409E0002C0ADB0A22002336
:10329000FCF796FF039B30321A55641E50EA010278
:1032A000F2D1641C039AC4F111031444119A012A47
:1032B00003D0012208430DD10AE0084304D00020C6
:1032C0004FF0110B119072E7A3EB0B056D1E0DE093
:1032D0005B4504DD4FF0000205F1010504E003DA6F
:1032E0004FF00002A5F10105002AECD002981199D7
:1032F000C0E90231C0E9004579E700000000144050
:103300000000F03F300000000000F0430000E03F0C
:103310002DE9FF4F95B09B468946064600250FE2F2
:10332000252877D100242746F84A0121059400E09A
:10333000044316F8013F203B01FA03F01042F7D195
:1033400030782A2811D06FF02F033078A0F13002A6
:10335000092A16D8059A44F0020402EB820203EB14
:1033600042021044761C0590EFE759F8042B0592B1
:10337000002A03DA504244F40054059044F0020459
:10338000761C30782E2816D116F8010F44F004046C
:103390002A280DD06FF02F023078A0F13003092BCE
:1033A00009D807EB870302EB4303C718761CF3E742
:1033B00059F8047B761C30786C280FD006DC4C283A
:1033C00017D068280DD06A2814D104E0742810D0D2
:1033D0007A280FD10DE044F400140AE044F480147C
:1033E00001E044F440147278824202D104F5801462
:1033F000761C761C307866280BD013DC582877D0E2
:1034000009DC002875D04528F6D04628F4D0472896
:103410001AD19DE118E0632835D0642879D0652859
:1034200012D195E1702873D008DC6728F1D06928A3
:103430006FD06E280DD06F2806D1B5E073282CD040
:10344000752875D0782874D05A46179990476D1C06
:1034500075E1C4F30250022809D003280DD0D9F831
:10346000001004280DD00D6009F1040967E1D9F8B6
:103470000010EA17C1E90052F6E7D9F800100D80F4
:10348000F2E70D70F0E719F8041B8DF8001000202A
:103490008DF80100EA46012003E059F804AB4FF033
:1034A000FF3061074FF0000102D40DE008F1010187
:1034B0008846B9420FDA8045F8DB1AF8081000296F
:1034C000F4D108E008F1010188468142FADB1AF8DC
:1034D00008100029F6D105985B46A0EB08072146A5
:1034E0003846179A00F094FA284400EB080507E0E4
:1034F0004DE029E10DE01AF8010B5A461799904763
:10350000B8F10108F7D25B4621463846179A13E115
:1035100042E00A220092C4F302524FF0000A022A4B
:1035200008D059F804CB032A4FEAEC710AD00DE019
:1035300029E02AE009F1070121F00702F2E802C1BF
:10354000914609E00FFA8CFC4FEAEC71042A03D192
:103550004FFA8CFC4FEAEC71002907DA0A46002189
:10356000DCF1000C61EB02012D2202E0220504D502
:103570002B228DF80420012203E0E20701D0202253
:10358000F7E7904659E00A2102E010220DE01021F1
:103590004FF0000A00910BE010224FF0000A44F0B7
:1035A00004040827009203E008224FF0000A00926A
:1035B000C4F30252022A05D059F804CB0021032A91
:1035C00008D009E009F1070121F00702F2E802C181
:1035D000914605E01FFA8CFC042A01D10CF0FF0C87
:1035E0004FF00008220728D5702806D0009B83F0F2
:1035F000100353EA0A0305D00EE040228DF80420A0
:10360000012208E05CEA010206D030228DF8042095
:103610008DF8050002229046009B83F0080353EAD0
:103620000A030AD15CEA010201D1620705D5302202
:103630008DF804204FF001087F1E582804D034A0D4
:1036400003900EA802900DE036A0F9E753466046BD
:10365000009AFCF7B5FD84460398825C0298401EF0
:10366000029002705CEA0100F0D1029806A9081AE3
:1036700000F1200A600702D524F4803400E001271D
:10368000574502DDA7EB0A0000E0002000EB0A012D
:10369000009005984144401A0590E00306D45B462B
:1036A0002146179A059800F0B3F90544002706E073
:1036B00001A85A46C05D179990476D1C7F1C47456D
:1036C000F6DBE0030CD55B462146179A059800F01F
:1036D0009FF9054404E030205A46179990476D1C25
:1036E0000099481E00900029F5DC08E00298029934
:1036F0005A460078491C0291179990476D1CBAF1FF
:103700000001AAF1010AF1DC65E1000009280100CD
:103710003031323334353637383961626364656647
:103720000000000030313233343536373839414209
:10373000434445460000000000F058F90544761C5B
:10374000307800287FF4ECAD19B02846BDE8F08F42
:10375000620700D4062709F1070222F0070CFCE8F3
:103760000223E14603F000485FEA080C02D00FF2A2
:10377000702C0DE05FEA045C02D50FF2682C07E0C4
:103780005FEAC47C02D00FF2602C01E0AFF2700C53
:103790004FF0FF3823F00043CDF850C065280CD01F
:1037A00006DC452809D046281DD047283DD13DE0FC
:1037B000662818D067287ED138E00021112F01DB60
:1037C000112000E0781CCDE9000106A90EA8FFF742
:1037D000DDFCDDE90F010E9A03910021009207F153
:1037E000010A04914DE04FF000400097CDE901102F
:1037F00006A90EA8FFF7CAFCDDE90F0203920E9B93
:1038000011990022DDF80CA00093049211B9791CE3
:1038100000EB010AB7EB0A0004D4C0F1FF3007F156
:10382000010A0490AAEB0700019044E0012F00DA9E
:1038300001270021112F01DD112000E03846CDE9DC
:10384000000106A90EA8FFF7A1FCDDE90F010E9A01
:103850000391002104910092BA4621070CD40399E8
:10386000514500DA8A46BAF1010F05DD009AAAF146
:103870000101515C302908D0B84202DA10F1040F7E
:1038800006DA0121CDE9011015E0AAF10101E9E70D
:10389000002805DC049901440491AAEB000102E030
:1038A000411C514500DD8A460499401A401C019094
:1038B0004FF000400290200704D40198504501DBEE
:1038C000CDF8048000208DF84F0002980DF14F07CD
:1038D000B0F1004F25D02B200E9002984FF0020837
:1038E00000280CDA404202902D200E9007E00A21B9
:1038F0000298FCF7A8FC3031029007F8011DB8F1DE
:103900000001A8F10108F2DC02980028EFD1791E2D
:103910000E980870307800F0200040F0450007F85D
:10392000020D12A8C01B00F107081498007800B11E
:10393000012000EB0A01019801EBE0710598414478
:10394000401A401E0590E00306D45B462146179AB4
:10395000059800F05DF805441498007818B15A46AF
:10396000179990476D1CE00324D55B462146179AB2
:10397000059800F04DF805441CE00498002807DB8A
:10398000DDE90301884203DD0098405C179901E0FE
:10399000179930205A469047049805F10105401CBC
:1039A00004900198401E019004D12E205A46179988
:1039B00090476D1CBAF10001AAF1010ADDDC05E0B7
:1039C00017F8010B5A46179990476D1CB8F1000182
:1039D000A8F10108F4DC5B462146179A0598ABE68E
:1039E0002D0000002B000000200000002DE9F04118
:1039F000044600251E461746880404D405E03946CF
:103A00002020B0476D1C641EF9D52846BDE8F08122
:103A10002DE9F041044600251E469046C80301D515
:103A2000302700E02027880404D505E041463846C9
:103A3000B0476D1C641EF9D52846BDE8F081000032
:103A4000000000000000010203040607080900004E
:103A50000000010203046661696C65642C204572F4
:103A6000726F72436F64653D3078253038582C2072
:103A70005453523D3078253038580D0A0048414C97
:103A80005F43414E5F5374617274206661696C2CB0
:103A9000207265743D25642C204572726F72436FED
:103AA00064653D3078253038580D0A004F4B2C2086
:103AB0006D623D256C750D0A00000000E03A0008BB
:103AC00000000020100000006C310008F03A0008EF
:103AD00010000020780400007C3100080000000085
:103AE000000000000024F4000100000010000000AD
:040000050800018965
:00000001FF
